:0910A20007111703170F0A3904A6
:0510C000C2B5C2B6221A
:050E4A002DFDEE3CFC53
:060E4F008C088D09AB07C1
:100E5500D2B5E4FD74017E00A805088005C333CE34
:100E650033CED8F9FFEBF582EF558224FF92B4D249
:100E7500B6C2B60DBD08DDE4FD74017E00A8050807
:100E85008005C333CE33CED8F9FFE5085EFEE5090C
:100E95005F4E24FF92B4D2B6C2B60DBD08DBC2B612
:020EA500C2B5D4
:010EA7002228
:020EA800A90798
:100EAA00E4FD09D2B5FB74017E00A803088005C3DE
:100EBA0033CE33CED8F9FFE9F582EF558224FF927B
:100ECA00B4C2B6D2B60BBB08DDE4FBD2B6C2B630AA
:100EDA00B40D7401A803088002C333D8FC42050B81
:090EEA00BB08E8C2B5C2B4AF05B3
:010EF30022DC
:1009D900E4FDFC7F8E120E4FE51175F00A120B53E0
:1009E900FF3395E0FEEFC4F8540FC868FFEEC45416
:1009F900F048FEE51175F00A120B53ADF0ED339591
:100A0900E0FCEF7F8C120E4AE51275F00A120B53C7
:100A1900FF3395E0FEEFC4F8540FC868FFEEC454E5
:100A2900F048FEE51275F00A120B53ADF0ED33955F
:100A3900E0FCEF7F88120E4AE51375F00A120B539A
:100A4900FF3395E0FEEFC4F8540FC868FFEEC454B5
:100A5900F048FEE51375F00A120B53ADF0ED33952E
:100A6900E0FCEF2DFDEE3CFC7F86120E4FE5147580
:100A7900F00A120B53FF3395E0FEEFC4F8540FC888
:100A890068FFEEC454F048FEE51475F00A120B53E2
:100A9900ADF0ED3395E0FCEF2DFDEE3CFC7F8412CB
:100AA9000E4FE51575F00A120B53FF3395E0FEEF73
:100AB900C4F8540FC868FFEEC454F048FEE5157534
:100AC900F00A120B53ADF0ED3395E0FCEF2DFDEE7E
:100AD9003CFC7F82120E4FE51675F00A120B53FF8C
:100AE9003395E0FEEFC4F8540FC868FFEEC454F024
:100AF90048FEE51675F00A120B53ADF0ED3395E09B
:100B0900FCEF2DFDEE3CFC7F80120E4FE51775F0D2
:100B19000A120B53FF3395E0FEEFC4F8540FC8686F
:100B2900FFEEC454F048FEE51775F00A120B53ADF9
:100B3900F0ED3395E0FCEF2DFDEE3CFC7F8A120EC3
:0A0B49004F7D807C007F8E020E4F6E
:100C95007F8C120EA8EFC4540F75F00AA4FEEF5412
:100CA5000F2EF5117F88120EA8EFC4540F75F00AA8
:100CB500A4FEEF540F2EF5127F86120EA8EFC45432
:100CC5000F75F00AA4FEEF540F2EF5137F84120E54
:100CD500A8EFC4540F75F00AA4FEEF540F2EF514B7
:100CE5007F82120EA8EFC4540F75F00AA4FEEF54CC
:100CF5000F2EF5157F80120EA8EFC4540F75F00A5C
:080D0500A4FEEF540F2EF516B9
:010D0D0022C3
:06108500C2A58F80D2A776
:08108B007F027EEFDEFEDFFCB8
:01109300223A
:0A10AC00C2A6121085C2A702108B25
:100FF500CFCDCFCECCCE120BB47C007D0A120BB474
:04100500ED2430FFA7
:0A100900D2A6121085C2A702108BB8
:10104700AE07BE0104ED148006BE0209ED243F443D
:0610570080FF1210AC2224
:10105D007F381210AC7F0C1210AC7F061210AC7FD3
:04106D00010210ACC0
:0A10B600AC03121047AF040210094A
:060FD2008B088A09890A60
:100FD800121047E4FDAB08AA09A90A8D827583009F
:0C0FE800120B75FF60061210090D80E965
:010FF40022DA
:0C0F9F007F0AEA24FFFDE434FFFC7E0022
:080FAB008E0D8F0E8C0F8D10CE
:100FB3007F017E00E4FBEBC39510E50F6480F874BA
:0E0FC3008098500AAC0DAD0E120BA20B80E808
:010FD10022FD
:041013008A0A8B0BAF
:10101700121047AA0CEAD39400400D120F9FAC0A96
:08102700AD0B120FF51A80ED6C
:01102F00229E
:100EF400121047C3EA64809480400B7F2B121009C0
:100F04008A1D8B1E800E7F2D121009C3E49BF51ED3
:100F1400E49AF51DAA1CEAD39400400D120F9FAC6D
:090F24001DAD1E120FF51A80ED3F
:010F2D0022A1
:040F2E008A278B285B
:100F3200121047AA29EAD3940040297F10120FA168
:100F4200AC27AD28CFCDCFCECCCE120BB4EF540F01
:100F5200FEC3940AEE5004243080022437FF12109C
:040F6200091A80D117
:010F66002268
:040F67008A2C8B2D18
:100F6B00121047AA2EEAD394004028EA24FFFDE48E
:100F7B0034FFFC7F027E00120FABAC2CAD2DCFCD1E
:100F8B00CFCECCCE120BB4EF54012430FF1210098C
:030F9B001A80D2E7
:010F9E002230
:0E10940020202D20202D0020203A20203A0080
:100D8000120C95E511FB3395E0FA750C027D017F9D
:100D900001121013E512FB3395E0FA750C027D0485
:100DA0007F01121013E513FB3395E0FA750C027DF9
:100DB000077F01121013E514FB3395E0FA750C025E
:100DC0007D017F02121013E515FB3395E0FA750CD7
:100DD000027D047F02121013E516FB3395E0FA75CD
:090DE0000C027D077F02021013D2
:10080000E523B4020B0524E52475F0068485F02465
:10081000E523640360030208D574112524F806D388
:10082000E511648094E34003E4F511D3E51264809C
:10083000948C4003751201E51264016023E5126493
:1008400003601DE51264056017E51264076011E599
:10085000126408600BE512640A6005E512B40C0B23
:10086000D3E5136480949F40488043E5126404609C
:1008700011E5126406600BE51264096005E512B427
:100880000B0BD3E5136480949E40268021E51175FF
:10089000F004120B53AFF0EF700BD3E513648094A8
:1008A0009D400E8009D3E5136480949C400375132A
:1008B00001D3E514648094974003E4F514D3E5155F
:1008C000648094BB4003E4F515D3E516648094BBC3
:1008D0004003E4F516E523640460030209CA7411B9
:1008E0002524F816C3E511648094805003751163C4
:1008F000C3E51264809481500375120CE512640103
:100900006023E5126403601DE51264056017E512BB
:1009100064076011E5126408600BE512640A600563
:10092000E512B40C17C3E51364809481500375136A
:100930001FD3E5136480949F406C8067E5126404C4
:100940006011E5126406600BE51264096005E512AA
:10095000B40B17C3E51364809481500375131ED341
:10096000E5136480949E403E8039E51175F00412D1
:100970000B53AFF0EF7017C3E513648094815003FD
:1009800075131DD3E5136480949D401A8015C3E54B
:100990001364809481500375131CD3E51364809411
:1009A0009C4003751301C3E5146480948050037563
:1009B0001417C3E51564809480500375153BC3E597
:1009C0001664809480500375163BE524FB7A00750D
:0909D0000C027D0C7F01021013E2
:100D0E0012105D1210C01210301209D97BFF7A102A
:100D1E0079947D017F01120FD27BFF7A10799B7D32
:100D2E00017F02120FD2120DE98F23EFFB7A0075AD
:100D3E000C027D0C7F02121013E522FB7A00750C5B
:100D4E00027D0F7F01121013E5236013B4010375AA
:100D5E002201E523C3940240067522021209D9E549
:100D6E002224FE60080470BE120D8080B9120800A5
:020D7E0080B43F
:100DE900E4F50820B1137F14FE12107130B1FD7FB4
:100DF900147E0012107175080120B0147F147E0052
:100E090012107130B0FD7F147E0012107175080246
:100E190020B2147F147E0012107130B2FD7F147E4F
:100E29000012107175080320B3147F147E0012108C
:100E39007130B3FD7F147E00121071750804AF087C
:010E49002286
:10107100EF4E600F7D027CEFDCFEDDFCEF1F70F0B8
:031081001E80EDE1
:011084002249
:101030005389F0438901758A66758CFCC28DD28C08
:07104000D2A9D2AFD2B92200
:03000000020C09E6
:0C0C0900787FE4F6D8FD75812E020C50B7
:100B5300C2D530F707B2D563F0FF05F030E70CB22A
:100B6300D5F4048463F0FF05F080018430D502F4EA
:020B730004225A
:100B7500BB010CE58229F582E5833AF583E0225035
:100B850006E92582F8E622BBFE06E92582F8E2227F
:0D0B9500E58229F582E5833AF583E4932299
:100BA200EF8DF0A4A8F0CF8CF0A428CE8DF0A42E67
:020BB200FE2221
:100BB400BC000BBE0029EF8DF084FFADF022E4CC25
:100BC400F875F008EF2FFFEE33FEEC33FCEE9DECEE
:100BD400984005FCEE9DFE0FD5F0E9E4CEFD22ED34
:100BE400F8F5F0EE8420D21CFEADF075F008EF2F7E
:100BF400FFED33FD4007985006D5F0F222C398FD6F
:050C04000FD5F0EA220B
:100C1500020D0EE493A3F8E493A34003F68001F2DA
:100C250008DFF48029E493A3F85407240CC8C333E0
:100C3500C4540F4420C8834004F456800146F6DFAF
:100C4500E4800B01020408102040809010A2E47E8D
:100C5500019360BCA3FF543F30E509541FFEE493A4
:100C6500A360010ECF54C025E060A840B8E493A36B
:100C7500FAE493A3F8E493A3C8C582C8CAC583CA96
:100C8500F0A3C8C582C8CAC583CADFE9DEE780BE4E
:0110AB000044
:00000001FF
