:07098C0002080000010B004E
:1009410012096175A0FE12088C8F0BE50B60F7B4DC
:100951000102050AE50AC3940240EBE4F50A80E6C8
:03000B000208EDFB
:1008ED00C0E0C0D075D000C000C007758CFC758A03
:1008FD00660509E50970020508C394F4E50894013D
:10090D004029750800750900E50A700DAFA0780142
:10091D00EF08800123D8FDF5A0E50AB4010DAFA0C5
:10092D007801EF08800103D8FDF5A0D007D000D0E5
:04093D00D0D0E03204
:10088C00E4F50C20B0137F14FE12097830B0FD7F14
:10089C00147E00120978750C0120B1147F147E00AF
:1008AC0012097830B1FD7F147E00120978750C02A4
:1008BC0020B2147F147E0012097830B2FD7F147EB2
:1008CC0000120978750C0320B3147F147E001209F2
:1008DC007830B3FD7F147E00120978750C04AF0CD0
:0108EC0022E9
:10097800EF4E600F7D027CEFDCFEDDFCEF1F70F0B8
:030988001E80EDE1
:01098B002249
:100961005389F0438901758A66758CFCC28DD28CDE
:07097100D2A9D2AFD2B922D6
:03000000020800F3
:0C080000787FE4F6D8FD75810C020847F3
:10080C00020941E493A3F8E493A34003F68001F2B8
:10081C0008DFF48029E493A3F85407240CC8C333ED
:10082C00C4540F4420C8834004F456800146F6DFBC
:10083C00E4800B010204081020408090098CE47EB7
:10084C00019360BCA3FF543F30E509541FFEE493B1
:10085C00A360010ECF54C025E060A840B8E493A378
:10086C00FAE493A3F8E493A3C8C582C8CAC583CAA3
:10087C00F0A3C8C582C8CAC583CADFE9DEE780BE5B
:010993000063
:00000001FF
