:100167001202221201068F36E53664017023053923
:10017700533903E5397002F537E539B401037537AB
:100187003CE539B4020375374BE539B403037537DA
:0D01970064AD397F0112000312020580C61D
:03000B000201DA15
:1001DA00C0E0C0F0C0D0758A9C758CFF0538E53840
:1001EA0075F0648485F038E538C395375004D290A9
:0B01FA008002C290D0D0D0F0D0E032E4
:10010600E4F53A20B1137F14FE12023930B1FD7FB7
:10011600147E00120239753A0120B0147F147E0055
:1001260012023930B0FD7F147E00120239753A0290
:1001360020B2147F147E0012023930B2FD7F147E85
:1001460000120239753A0320B3147F147E0012029E
:100156003930B3FD7F147E00120239753A04AF3A86
:010166002276
:10023900EF4E600F7D027CEFDCFEDDFCEF1F70F0FE
:030249001E80ED27
:01024C00228F
:100222005389F0438901758A9C758CFFC28DD28CEB
:07023200D2A9D2AFD2B9221C
:1001A4000909001111111111111111202412003F1C
:1001B4000006005B004F0066006D007D0007007FB5
:1001C400006F007700FF003900BF00790071004024
:0501D40000000108011C
:0700030074092FF8A6052285
:10009A00E4F580EE705BEF14B4080050549000B59C
:1000AA0075F003A4C58325F0C583730200CD020051
:1000BA00D10200D50200D90200DD0200E50200EDFE
:1000CA000200F5C2A4800EC2A48012C2A48016C285
:1000DA00A4801AD2A4C2A3C2A28016D2A4C2A3D256
:1000EA00A2800ED2A4D2A3C2A28006D2A4D2A3D244
:0C00FA00A2ED25E02412F808E6F58022B3
:10020500AF087E0074092508F8E6FD7C0012009A07
:0C0215000508E508C394094003750801C2
:0102210022BA
:0300000002000EED
:0C000E00787FE4F6D8FD75813A020055B9
:10001A00020167E493A3F8E493A34003F68001F294
:10002A0008DFF48029E493A3F85407240CC8C333E7
:10003A00C4540F4420C8834004F456800146F6DFB6
:10004A00E4800B01020408102040809001A4E47EA1
:10005A00019360BCA3FF543F30E509541FFEE493AB
:10006A00A360010ECF54C025E060A840B8E493A372
:10007A00FAE493A3F8E493A3C8C582C8CAC583CA9D
:10008A00F0A3C8C582C8CAC583CADFE9DEE780BE55
:0101D9000025
:00000001FF
