:10025300EF4E600F7D027CEFDCFEDDFCEF1F70F0E4
:030263001E80ED0D
:010266002275
:10023C005389F0438901758A66758CFCC28DD28C0A
:07024C00D2A9D2AFD2B92202
:10000D00000400040004160218021906180219044F
:10001D001D04180C110211021606140216041904FF
:10002D00140C110412061102120419041108000215
:10003D0019021902190218061302120418041808DD
:10004D000004160218021906180219041D04180CD2
:10005D00110211021606140216041904140C0F02D3
:10006D00110212041902180419061B021B021D02AB
:10007D00190A190218021602160218041504160C94
:10008D0019021B021D061B021D0420041B0C140269
:10009D0014021906180219041D041D101602180267
:1000AD00190418041B021B021906140A1E041D0450
:1000BD001B0419041D0C1D042208200420041D021C
:1000CD001B021908000219021B0419021B021B0452
:1000DD0020041D0C1D04220820081D021B021908F6
:1000ED00000219021B0419021B061804160C160235
:0300FD001802FFE7
:10018C00204A080000F88CF8F3F95BF9B8FA15FA74
:10019C0067FAB9FB04FB4BFB90FBCFFC0CFC44FC5B
:1001AC0079FCACFCDCFD09FD34FD5CFD82FDA6FD9B
:1001BC00C8FDE8FE06FE22FE3DFE56FE6EFE85FEE6
:0D01CC009AFEAEFEC1FED3FEE4FEF4FF037A
:10020E00513CE55290000D93FFF4601E8F53055242
:10021E00E5529375F07DA4FFAEF051530552C28C9A
:0E022E007F057E005153D28C80D8C28C80FE9A
:02000B0021DAF8
:1001DA00C0E0C0D075D000C000C006E55325E024B9
:1001EA0008F8E6FE08E64E6012E55325E02408F812
:1001FA00E6FE08E6F58AEEF58CB2A5D006D000D068
:04020A00D0D0E0323E
:03000000020100FA
:0C010000787FE4F6D8FD758153020147BA
:10010C0002020EE493A3F8E493A34003F68001F2F9
:10011C0008DFF48029E493A3F85407240CC8C333F4
:10012C00C4540F4420C8834004F456800146F6DFC3
:10013C00E4800B010204081020408090018CE47EC6
:10014C00019360BCA3FF543F30E509541FFEE493B8
:10015C00A360010ECF54C025E060A840B8E493A37F
:10016C00FAE493A3F8E493A3C8C582C8CAC583CAAA
:10017C00F0A3C8C582C8CAC583CADFE9DEE780BE62
:0101D9000025
:00000001FF
