:02083E00A90708
:10084000E4FBFAAF0374807E00A807088006CEA2FE
:10085000E713CE13D8F8FFE9FDEF5D24FF92B4D281
:10086000B6C2B60BBB00010AEB64084A70D5D2B51C
:02087000C2B50F
:010872002263
:10087300AE05AC07AF0612083EAF047480A80708A4
:100883008002C313D8FCF4F5801208CA7580FF22D6
:10080000C2B6C2B57DFFE4FF1208737D817F01127D
:1008100008737D817F021208737D817F0312087344
:100820007D817F041208737D817F051208737D81AD
:0E0830007F061208737DFF7F0712087380C6D3
:1008AA00EF4E600F7D027CEFDCFEDDFCEF1F70F087
:0308BA001E80EDB0
:0108BD002218
:0408CA007F2BDFFEA3
:0108CE002207
:100893005389F0438901758A66758CFCC28DD28CAD
:0708A300D2A9D2AFD2B922A5
:030000000208BE35
:0C08BE00787FE4F6D8FD75810702080081
:00000001FF
