:10099E00E4FD7F0112088C1208F58F2AE52A60F714
:1009AE007F647E0012097CAD2A7F0112088C80E7DD
:1009D500EF4E600F7D027CEFDCFEDDFCEF1F70F05B
:0309E5001E80ED84
:0109E80022EC
:1009BE005389F0438901758A66758CFCC28DD28C81
:0709CE00D2A9D2AFD2B92279
:10095600202208003F0006005B004F0066006D0085
:100966007D0007007F006F007700FF003900BF00A1
:05097600790071000092
:10088C00EE705BEF14B4080050549008A475F0039C
:10089C00A4C58325F0C583730208BC0208C00208F6
:1008AC00C40208C80208CC0208D40208DC0208E41E
:1008BC00C2A4800EC2A48012C2A48016C2A4801A44
:1008CC00D2A4C2A3C2A28016D2A4C2A3D2A2800E6A
:1008DC00D2A4D2A3C2A28006D2A4D2A3D2A2ED25C6
:0908EC00E02408F808E6F580227A
:0409E9007FE3DFFECB
:0109ED0022E7
:04097C00AD07AC0611
:10098000E4FBFAED25E0FFEC33FEC3EB9FEA9E505B
:0D0990000CB2951209E90BBB00010A80E6CC
:01099D002237
:1008F500E4F52B20B1137F14FE1209D530B1FD7F2D
:10090500147E001209D5752B0120B0147F147E00CA
:100915001209D530B0FD7F147E001209D5752B0262
:1009250020B2147F147E001209D530B2FD7F147EEB
:10093500001209D5752B0320B3147F147E0012090C
:10094500D530B3FD7F147E001209D5752B04AF2B6E
:01095500227F
:03000000020800F3
:0C080000787FE4F6D8FD75812B020847D4
:10080C0002099EE493A3F8E493A34003F68001F25B
:10081C0008DFF48029E493A3F85407240CC8C333ED
:10082C00C4540F4420C8834004F456800146F6DFBC
:10083C00E4800B0102040810204080900956E47EED
:10084C00019360BCA3FF543F30E509541FFEE493B1
:10085C00A360010ECF54C025E060A840B8E493A378
:10086C00FAE493A3F8E493A3C8C582C8CAC583CAA3
:10087C00F0A3C8C582C8CAC583CADFE9DEE780BE5B
:01097B00007B
:00000001FF
