:10088C000000000000000000002132AC6C3221009E
:10089C00380601FF0000002054D45F5502003A6A6C
:1008AC00AF2A3A0000007C547C0097F58595F70040
:1008BC0000000204ADBAEAAAFB200000007FA8AA3F
:1008CC00A9FF007FA8AAA9FF007EE45675070000C7
:0808DC00000000000000000014
:0709B700010A000208000024
:1008E400E4F50C1209BF12098CE4F50BE50B250A9B
:1008F40090088C93FD7C00AF0B12096A050BE50B85
:10090400C3940840E7E50AD3945040DDE4F50A8037
:01091400D80A
:03000B00020942A5
:10094200C0E0C0D0758CFC758A660509E5097002A5
:100952000508C394F4E50894014008750800750978
:0809620000050AD0D0D0E032FC
:0509BF00C2B6C2B52222
:02091500AD072C
:10091700E4FB74807E00A803088006CEA2E713CE0E
:1009270013D8F8FFEDF582EF558224FF92B4D2B6C3
:0A093700C2B60BBB08DCD2B5C2B596
:010941002293
:10096A00AA07AF05120915AF027480A8070880020A
:10097A00C313D8FCF4F5807F017E001209A37580A9
:02098A00FF224A
:1009A300EF4E600F7D027CEFDCFEDDFCEF1F70F08D
:0309B3001E80EDB6
:0109B600221E
:0409C4007F2BDFFEA8
:0109C800220C
:10098C005389F0438901758A66758CFCC28DD28CB3
:07099C00D2A9D2AFD2B922AB
:03000000020800F3
:0C080000787FE4F6D8FD75810C020847F3
:10080C000208E4E493A3F8E493A34003F68001F216
:10081C0008DFF48029E493A3F85407240CC8C333ED
:10082C00C4540F4420C8834004F456800146F6DFBC
:10083C00E4800B01020408102040809009B7E47E8C
:10084C00019360BCA3FF543F30E509541FFEE493B1
:10085C00A360010ECF54C025E060A840B8E493A378
:10086C00FAE493A3F8E493A3C8C582C8CAC583CAA3
:10087C00F0A3C8C582C8CAC583CADFE9DEE780BE5B
:0109BE000038
:00000001FF
