:0E0B5700436C6F636B3A0020203A20203A0076
:0D0B6500011A38011C3A011B17021800008C
:10092000120AF3120B207BFF7A0B79577D017F01AE
:10093000120A957BFF7A0B795E7D017F02120A9580
:10094000E51BFB7A00750C027D017F02120AD6E5D9
:100950001CFB7A00750C027D047F02120AD6E51A90
:10096000FB7A00750C027D077F02120AD6E51AD3C6
:10097000943B40CC051CE4F51AE51CD3943B40C0E5
:0F098000051BE4F51CE51BB418B6E4F51B80B1AC
:03000B00020A6D79
:100A6D00C0E0C0D0758CFC758A660519E519700259
:100A7D000518C394E8E51894034008751800751916
:080A8D0000051AD0D0D0E032C0
:060B4800C2A58F80D2A7B8
:080B4E007F027EEFDEFEDFFCFA
:010B5600227C
:0A0B7300C2A6120B48C2A7020B4EE7
:100AB800CFCDCFCECCCE12083F7C007D0A12083FA6
:040AC800ED2430FFEA
:0A0ACC00D2A6120B48C2A7020B4E7F
:100B0A00AE07BE0104ED148006BE0209ED243F447F
:060B1A0080FF120B7322A4
:100B20007F38120B737F0C120B737F06120B737FCF
:040B300001020B7340
:0A0B7D00AC03120B0AAF04020ACC0D
:060A95008B088A09890AA2
:100A9B00120B0AE4FDAB08AA09A90A8D8275830023
:0C0AAB00120800FF6006120ACC0D80E962
:010AB700221C
:0C0A3A007F0AEA24FFFDE434FFFC7E008C
:080A46008E0D8F0E8C0F8D1038
:100A4E007F017E00E4FBEBC39510E50F6480F87424
:0E0A5E008098500AAC0DAD0E12082D0B80E8EA
:010A6C002267
:040AD6008A0A8B0BF2
:100ADA00120B0AAA0CEAD39400400D120A3AAC0A85
:080AEA00AD0B120AB81A80EDF1
:010AF20022E1
:10098F00120B0AC3EA64809480400B7F2B120ACCAF
:10099F008A168B17800E7F2D120ACCC3E49BF51796
:1009AF00E49AF516AA15EAD39400400D120A3AAC50
:0909BF0016AD17120AB81A80EDFA
:0109C800220C
:0409C9008A1F8B20D6
:1009CD00120B0AAA21EAD3940040297F10120A3C87
:1009DD00AC1FAD20CFCDCFCECCCE12083FEF540FF4
:1009ED00FEC3940AEE5004243080022437FF120A0D
:0409FD00CC1A80D1BF
:010A010022D2
:040A02008A248B2592
:100A0600120B0AAA26EAD394004028EA24FFFDE442
:100A160034FFFC7F027E00120A46AC24AD25CFCD02
:100A2600CFCECCCE12083FEF54012430FF120ACCB1
:030A36001A80D251
:010A3900229A
:100AF3005389F0438901758A66758CFCC28DD28C4B
:070B0300D2A9D2AFD2B92242
:100B3400EF4E600F7D027CEFDCFEDDFCEF1F70F0FA
:030B44001E80ED23
:010B4700228B
:030000000208945F
:0C089400787FE4F6D8FD7581260208DBB1
:10080000BB010CE58229F582E5833AF583E02250AD
:1008100006E92582F8E622BBFE06E92582F8E222F7
:0D082000E58229F582E5833AF583E4932211
:10082D00EF8DF0A4A8F0CF8CF0A428CE8DF0A42EDF
:02083D00FE2299
:10083F00BC000BBE0029EF8DF084FFADF022E4CC9D
:10084F00F875F008EF2FFFEE33FEEC33FCEE9DEC66
:10085F00984005FCEE9DFE0FD5F0E9E4CEFD22EDAC
:10086F00F8F5F0EE8420D21CFEADF075F008EF2FF6
:10087F00FFED33FD4007985006D5F0F222C398FDE7
:05088F000FD5F0EA2284
:1008A000020920E493A3F8E493A34003F68001F245
:1008B00008DFF48029E493A3F85407240CC8C33359
:1008C000C4540F4420C8834004F456800146F6DF28
:1008D000E4800B0102040810204080900B65E47E48
:1008E000019360BCA3FF543F30E509541FFEE4931D
:1008F000A360010ECF54C025E060A840B8E493A3E4
:10090000FAE493A3F8E493A3C8C582C8CAC583CA0E
:10091000F0A3C8C582C8CAC583CADFE9DEE780BEC6
:010B72000082
:00000001FF
