:10096B00543A0054483A00544C3A004F563A480017
:0A097B004F563A4C002020202000C7
:10046D0012099E120A2E7FE87E03120A0BE4FF1278
:10047D0007EF8F107F011207EF8F0AD3E51064800D
:10048D0094FD5016C3E50A64809449400DD3E50AE6
:10049D006480F8E5106480985006751014750A0F85
:1004AD001209F77BFF7A09796B7D017F011208989C
:1004BD007BFF7A09796E7D017F021208987BFF7AA6
:1004CD000979727D097F02120898E510FB3395E0DA
:1004DD00FA7519037D047F021206D8E50AFB3395E0
:1004ED00E0FA7519037D0C7F021206D8120A7A8F75
:1004FD000B120A2E12081F8F0F8E0E8D0D8C0CE411
:10050D00FFFEFDFCAB0FAA0EA90DA80C1201B450F5
:10051D001E7B2D7D037F01120A5DAF0FAE0EAD0D5B
:10052D00AC0C12022D8F148E138D128C1180157B35
:10053D002B7D037F01120A5D850F14850E13850D2A
:10054D0012850C11AF0FAE0EAD0DAC0C12027CABC3
:10055D0007AA067519037D047F011209157B2E7DEF
:10056D00077F01120A5DE4FFFE7DC87C42AB14AA31
:10057D0013A912A81112000E12027CE47B64FAF981
:10058D00F81203CD7519027D087F01120915E50BCF
:10059D00700302063AB4010E0510D3E51064809481
:1005AD00FD400375107DE50BB402111510D3E50A5E
:1005BD006480F8E51064809850020510E50BB403D3
:1005CD0011050AC3E5106480F8E50A6480984002BD
:1005DD00150AE50BB4040E150AC3E50A64809449A7
:1005ED005003750AC9E510FB3395E0FA7519037DC3
:1005FD00047F021206D8E50AFB3395E0FA7519035C
:10060D007D0C7F021206D8E510FD3395E0FCE4FF6A
:10061D001208747F057E00120A0BE50AFD3395E082
:10062D00FC7F011208747F057E00120A0BAC10ECE2
:10063D00120248AB0FAA0EA90DA80C1201B4600A44
:10064D0040087BFF7A097976801FAC0AEC120248CC
:10065D00AB0FAA0EA90DA80C1201B47BFF50067AA0
:10066D0009797B80047A0979807D0D7F01120898C4
:03067D000204F97B
:03000B000206806A
:10068000C0E0C0F0C083C082C0D075D000C000C040
:0D06900001C002C003C004C005C006C007C1
:10069D00758CFC758A660509E50970020508C39419
:1006AD0014E5089400400975080075090012074B00
:1006BD00D007D006D005D004D003D002D001D00091
:0B06CD00D0D0D082D083D0F0D0E0323B
:060A1F00C2A58F80D2A7E2
:080A25007F027EEFDEFEDFFC24
:010A2D0022A6
:0A0A5300C2A6120A1FC2A7020A255C
:1008BB00CFCDCFCECCCE12033C7C007D0A12033CB5
:0408CB00ED2430FFE9
:0A08CF00D2A6120A1FC2A7020A25D2
:1009B500AE07BE0104ED148006BE0209ED243F44D6
:0609C50080FF120A53221C
:1009F7007F38120A537F0C120A537F06120A537F5D
:040A070001020A538B
:0A0A5D00AC031209B5AF040208CF84
:060898008B158A1689177A
:10089E001209B5E4FDAB15AA16A9178D8275830052
:0C08AE001202FDFF60061208CF0D80E969
:0108BA00221B
:0C07BC007F0AEA24FFFDE434FFFC7E000D
:0807C8008E1C8F1D8C1E8D1F7D
:1007D0007F017E00E4FBEBC3951FE51E6480F87487
:0E07E0008098500AAC1CAD1D12032A0B80E855
:0107EE0022E8
:040915008A178B189A
:100919001209B5AA19EAD39400400D1207BCAC1705
:08092900AD181208BB1A80EDA5
:0109310022A3
:1006D8001209B5C3EA64809480400B7F2B1208CFBF
:1006E8008A1A8B1B800E7F2D1208CFC3E49BF51B43
:1006F800E49AF51AAA19EAD39400400D1207BCAC83
:090708001AAD1B1208BB1A80EDAA
:0107110022C5
:040712008A228B2389
:100716001209B5AA24EAD3940040297F101207BE15
:10072600AC22AD23CFCDCFCECCCE12033CEF540FAF
:10073600FEC3940AEE5004243080022437FF1208C8
:04074600CF1A80D175
:01074A00228C
:040784008A278B280D
:100788001209B5AA29EAD394004028EA24FFFDE417
:1007980034FFFC7F027E001207C8AC27AD28CFCDFE
:1007A800CFCECCCE12033CEF54012430FF1208CF39
:0307B8001A80D2D2
:0107BB00221B
:100A0B00EF4E600F7D027CEFDCFEDDFCEF1F70F024
:030A1B001E80ED4D
:010A1E0022B5
:0D0A2E001208D97FCC1209857F440209858A
:10081F001208D97FCC1209857FBE120985120932C1
:10082F008F15120932EFFEE515FFFDAC06EC120233
:0B083F0043E4FBFA79807841120117B6
:01084A00228B
:1008D900C2AFD2B7C2B77FE3DFFED2B77F1DDFFE5B
:0D08E900A2B7E433FE7FE3DFFED2AFAF061F
:0108F60022DF
:1009CB00C2AFC2B77E03DEFEEF24FF92B77E16DE08
:0509DB00FED2B7D2AF0F
:0109E00022F4
:10094F00C2AFC2B77F01DFFED2B77F01DFFEA2B712
:0B095F00E433FE7F16DFFED2AFAF06D0
:01096A00226A
:02098500AD07BC
:10098700E4FC7401A804088002C333D8FC5DFF129D
:0609970009CB0CBC08ECCA
:01099D002237
:10093200E4FDFC12094FEF600D7401A80408800267
:0C094200C333D8FC42050CBC08E9AF052B
:01094E002286
:100874008F158C168D17120A717FA012084B120A5D
:100884003BAF1512084B120A3BAF1712084B120A62
:040894003B02000320
:0207EF008F1564
:1007F100120A717FA012084B120A3BAF1512084B67
:10080100120A3B120A717FA112084B120A3B12080D
:0D081100F78F167F01120A67120003AF1661
:01081E0022B7
:090A7100D2A0D2A1C2A0C2A122B0
:07000300C2A0D2A1D2A0228D
:02084B00AD07F7
:10084D00E4FB74807E00A803088006CEA2E713CED9
:10085D0013D8F8FFEDF582EF558224FF92A0D2A1B7
:06086D00C2A10BBB08DC78
:010873002262
:1008F700E4FFD2A0FED2A130A00D7480A806088024
:0D09070002C313D8FC4207C2A10EBE08E8CF
:0109140022C0
:0A0A6700EF24FF92A0D2A1C2A12249
:0B0A3B00E4D2A0D2A1A2A033FFC2A110
:010A4600228D
:050A7A00E4AF2CF52C97
:010A7F002254
:1009E100E4FF20B1010F20B0027F0220B2027F0399
:0509F10020B3027F04A9
:0109F60022DE
:10074B00852A2B1209E18F2AE52BB40107E52A70C4
:10075B0003752C01E52BB40207E52A7003752C02F7
:10076B00E52BB40307E52A7003752C03E52BB404C2
:08077B0007E52A7003752C0448
:010783002253
:10099E005389F0438901758A66758CFCC28DD28CA1
:0709AE00D2A9D2AFD2B92299
:10000E00EC4D6011E8497017ED33EC3304600DE4EC
:10001E00FCFFFEFD22E933E8330470F80202E81219
:10002E0002B358046009E4CC24815006285009021A
:10003E0002F22840030202EFC0E0EB4A7044B9809E
:10004E0006D0E0FB0202DEEF4E701CBD8008EBFF17
:10005E00EAFEE9FD80EBE98DF0A4FEE5F00200F783
:10006E00E9CDF9EAFEEBFFEF89F0A4FCE5F0CE89CD
:10007E00F0A42EFFE435F0CD89F0A42DFEE435F08A
:10008E008067EF4E7005BD80D780C3EF8BF0A4ACB8
:10009E00F0EE8BF0A42CFCE435F0F8EF8AF0A42CF3
:1000AE00E5F038FCE433CB8DF0A42CFCE5F03BF806
:1000BE00EE8AF0A42CFCE5F038F8E433CF89F0A4F6
:1000CE002CFCE5F038CF3400CE89F0A42FFFE5F0FC
:1000DE003EFEE433C98DF0A42EFEE5F039CD8AF054
:1000EE00A42FFFE5F03EFEE43DFD33D0E0FB5007CC
:1000FE000BBB000F0202F2EC2CFCEF33FFEE33FED3
:06010E00ED33FD0202CA00
:100114000202F2EC5D046005E8590470030202E88F
:100124001202B3580460F6EC4860F2EC7004FDFE71
:10013400FF22C860DB2481C85009C39860025006BE
:100144000202EF9850CAF582E9294B4A7005AB8246
:100154000202DE75F0007C1A7880C3EF9BEE9AED04
:1001640099400DC3EF9BFFEE9AFEED99FDE842F036
:10017400DC23ACF0D0E0FFD0E0FED0E0FDAB822089
:10018400E7101BEB60BAEC2CFCEF33FFEE33FEED13
:1001940033FD0202CAE803F830E705C0F075F00049
:1001A400EF2FFFEE33FEED33FD40B830E7C280AAF7
:1001B40074F8CC6480CCC86480C8F58204604FC3F2
:1001C400EB9FF5F0EA9E42F0E99D42F0E89C45F091
:1001D400603C501DE5825FFFE582D313CB5BCBF41B
:1001E4002B5582FB50280ABA002409B90020088044
:1001F4001DE5825BFBE582D313CF5FCFF4C3132FDE
:100204005582FF50090EBE00050DBD00010CC3EB65
:100214009FF5F0EA9E42F0E99D42F0E89C45F060CB
:0902240007CC4820E701B3EC22ED
:10022D00ED33EC33600A047003BD8004ECB2E7FCDF
:01023D00229E
:10023E0075F020800E75F010800575F0087D007E3B
:10024E00007F003392D530D50312045FEC3340109B
:10025E00EF33FFEE33FEED33FDEC33FCD5F0ED2244
:0E026E00E5F0247EA2D513CC92E7CDCEFF2280
:10027C00EDD2E7CD33EC3392D524814006E4FFFE7A
:10028C00FDFC22FCE4CFCECDCC24E0501174FF80D9
:10029C00EDC3CC13CCCD13CDCE13CECF13CF047076
:0702AC00F030D5DE02045F13
:1002B300E9D2E7C933E833F892D5EDD2E7CD33EC91
:0702C30033FC5002B2D5220A
:1002CA00EC30E7100FBF000C0EBE00080DBD000495
:1002DA000BEB6014A2D5EB13FCED92E7FD2274FF41
:1002EA00FCFDFEFF22E480F8A2D574FF13FC7D809A
:0302FA00E480EFAE
:03000000020A47AA
:0C0A4700787FE4F6D8FD75812C02046D68
:1002FD00BB010CE58229F582E5833AF583E02250B6
:10030D0006E92582F8E622BBFE06E92582F8E222FF
:0D031D00E58229F582E5833AF583E4932219
:10032A00EF8DF0A4A8F0CF8CF0A428CE8DF0A42EE7
:02033A00FE22A1
:10033C00BC000BBE0029EF8DF084FFADF022E4CCA5
:10034C00F875F008EF2FFFEE33FEEC33FCEE9DEC6E
:10035C00984005FCEE9DFE0FD5F0E9E4CEFD22EDB4
:10036C00F8F5F0EE8420D21CFEADF075F008EF2FFE
:10037C00FFED33FD4007985006D5F0F222C398FDEF
:05038C000FD5F0EA228C
:1003910075F008758200EF2FFFEE33FECD33CDCC23
:1003A10033CCC58233C5829BED9AEC99E5829840A6
:1003B1000CF582EE9BFEED9AFDEC99FC0FD5F0D683
:1003C100E4CEFBE4CDFAE4CCF9A88222B800C1B9AD
:1003D1000059BA002DEC8BF084CFCECDFCE5F0CBEB
:1003E100F97818EF2FFFEE33FEED33FDEC33FCEB24
:1003F10033FB10D703994004EB99FB0FD8E5E4F9DF
:10040100FA227818EF2FFFEE33FEED33FDEC33FCCB
:10041100C933C910D7059BE99A4007EC9BFCE99ABF
:10042100F90FD8E0E4C9FAE4CCFB2275F010EF2F04
:10043100FFEE33FEED33FDCC33CCC833C810D70704
:100441009BEC9AE899400AED9BFDEC9AFCE899F83F
:0E0451000FD5F0DAE4CDFBE4CCFAE4C8F922D2
:0E045F00C3E49FFFE49EFEE49DFDE49CFC22AE
:00000001FF
