:0E0D250020202D20202D0020203A20203A00F2
:100A0A00120D02120D511208007BFF7A0D79257D15
:100A1A00017F01120C8E7BFF7A0D792C7D017F02FA
:100A2A00120C8E120A8CE511FB7A00750C027D01FC
:100A3A007F01120CCFE512FB7A00750C027D047F50
:100A4A0001120CCFE513FB7A00750C027D077F01BA
:100A5A00120CCFE514FB7A00750C027D017F02129D
:100A6A000CCFE515FB7A00750C027D047F02120C8F
:100A7A00CFE516FB7A00750C027D077F02120CCFB8
:020A8A0080A149
:090D330007111703170F0A390418
:050D5100C2B5C2B6228C
:060B050025F0FDEC3EFCB2
:060B0B008C088D09AB0708
:100B1100D2B5E4FD74017E00A805088005C333CE7B
:100B210033CED8F9FFEBF582EF558224FF92B4D290
:100B3100B6C2B60DBD08DDE4FD74017E00A805084E
:100B41008005C333CE33CED8F9FFE5085EFEE50953
:100B51005F4E24FF92B4D2B6C2B60DBD08DBC2B659
:020B6100C2B51B
:010B6300226F
:020B6400A907DF
:100B6600E4FD09D2B5FB74017E00A803088005C325
:100B760033CE33CED8F9FFE9F582EF558224FF92C2
:100B8600B4C2B6D2B60BBB08DDE4FBD2B6C2B630F1
:100B9600B40D7401A803088002C333D8FC42050BC8
:090BA600BB08E8C2B5C2B4AF05FA
:010BAF002223
:10080000E4FDFC7F8E120B0BE51175F00A8475F088
:1008100010A4FFAEF0E51175F00A84EF7F8C120B87
:1008200005E51275F00A8475F010A4FFAEF0E5122C
:1008300075F00A847C00EF7F88120B05E51375F0D4
:100840000A8475F010A4FFAEF0E51375F00A847CFD
:1008500000EF25F0FDEC3EFC7F86120B0BE51475D6
:10086000F00A8475F010A4FFAEF0E51475F00A8468
:100870007C00EF25F0FDEC3EFC7F84120B0BE515B0
:1008800075F00A8475F010A4FFAEF0E51575F00A56
:10089000847C00EF25F0FDEC3EFC7F82120B0BE523
:1008A0001675F00A8475F010A4FFAEF0E51675F029
:1008B0000A847C00EF25F0FDEC3EFC7F80120B0BE0
:1008C000E51775F00A8475F010A4FFAEF0E5177512
:1008D000F00A847C00EF25F0FDEC3EFC7F8A120BD1
:0A08E0000B7D807C007F8E020B0B65
:100A8C007F8C120B64EFC4540F75F00AA4FEEF5464
:100A9C000F2EF5117F88120B64EFC4540F75F00AFA
:100AAC00A4FEEF540F2EF5127F86120B64EFC45484
:100ABC000F75F00AA4FEEF540F2EF5137F84120B62
:100ACC0064EFC4540F75F00AA4FEEF540F2EF51406
:100ADC007F82120B64EFC4540F75F00AA4FEEF541E
:100AEC000F2EF5157F80120B64EFC4540F75F00AAE
:080AFC00A4FEEF540F2EF516C5
:010B040022CE
:060D1600C2A58F80D2A7E8
:080D1C007F027EEFDEFEDFFC2A
:010D240022AC
:0A0D3D00C2A6120D16C2A7020D1C7B
:100CB100CFCDCFCECCCE1209297C007D0A120929D5
:040CC100ED2430FFEF
:0A0CC500D2A6120D16C2A7020D1CE4
:100CEC00AE07BE0104ED148006BE0209ED243F449C
:060CFC0080FF120D3D22F5
:100D02007F38120D3D7F0C120D3D7F06120D3D7F87
:040D120001020D3D90
:0A0D4700AC03120CECAF04020CC563
:060C8E008B088A09890AA7
:100C9400120CECE4FDAB08AA09A90A8D8275830045
:0C0CA4001208EAFF6006120CC50D80E982
:010CB0002221
:0C0C5B007F0AEA24FFFDE434FFFC7E0069
:080C67008E0D8F0E8C0F8D1015
:100C6F007F017E00E4FBEBC39510E50F6480F87401
:0E0C7F008098500AAC0DAD0E1209170B80E8DC
:010C8D002244
:040CCF008A0A8B0BF7
:100CD300120CECAA0CEAD39400400D120C5BAC0A84
:080CE300AD0B120CB11A80EDFB
:010CEB0022E6
:100BB000120CECC3EA64809480400B7F2B120CC5AE
:100BC0008A1D8B1E800E7F2D120CC5C3E49BF51E63
:100BD000E49AF51DAA1CEAD39400400D120C5BACFC
:090BE0001DAD1E120CB11A80EDCE
:010BE90022E9
:040BEA008A218B22AF
:100BEE00120CECAA23EAD3940040297F10120C5D5C
:100BFE00AC21AD22CFCDCFCECCCE120929EF540FE2
:100C0E00FEC3940AEE5004243080022437FF120CE7
:040C1E00C51A80D1A2
:010C220022AF
:040C23008A268B276B
:100C2700120CECAA28EAD394004028EA24FFFDE43A
:100C370034FFFC7F027E00120C67AC26AD27CFCDB8
:100C4700CFCECCCE120929EF54012430FF120CC5A8
:030C57001A80D22E
:010C5A002277
:0300000002097E74
:0C097E00787FE4F6D8FD7581280209C5D9
:1008EA00BB010CE58229F582E5833AF583E02250C3
:1008FA0006E92582F8E622BBFE06E92582F8E2220D
:0D090A00E58229F582E5833AF583E4932226
:10091700EF8DF0A4A8F0CF8CF0A428CE8DF0A42EF4
:02092700FE22AE
:10092900BC000BBE0029EF8DF084FFADF022E4CCB2
:10093900F875F008EF2FFFEE33FEEC33FCEE9DEC7B
:10094900984005FCEE9DFE0FD5F0E9E4CEFD22EDC1
:10095900F8F5F0EE8420D21CFEADF075F008EF2F0B
:10096900FFED33FD4007985006D5F0F222C398FDFC
:050979000FD5F0EA2299
:10098A00020A0AE493A3F8E493A34003F68001F26F
:10099A0008DFF48029E493A3F85407240CC8C3336E
:1009AA00C4540F4420C8834004F456800146F6DF3D
:1009BA00E4800B0102040810204080900D33E47E8D
:1009CA00019360BCA3FF543F30E509541FFEE49332
:1009DA00A360010ECF54C025E060A840B8E493A3F9
:1009EA00FAE493A3F8E493A3C8C582C8CAC583CA24
:1009FA00F0A3C8C582C8CAC583CADFE9DEE780BEDC
:010D3C0000B6
:00000001FF
