:1008CA000132000208000020280AFF080808FF0079
:1008DA001F151D0000FF010200FF0200081422225A
:1008EA00140800F11F10444C54640000000000007A
:0208FA000000FC
:10088C00C2B6C2B5AD0AE4FF120000AD0B7F011277
:10089C000000AD0C7F02120000AD0D7F03120000B2
:1008AC00AD0E7F04120000AD0F7F05120000AD10DD
:0E08BC007F06120000AD117F0712000080C6FB
:10091400EF4E600F7D027CEFDCFEDDFCEF1F70F01C
:030924001E80ED45
:0109270022AD
:040928007F2BDFFE44
:01092C0022A8
:1008FD005389F0438901758A66758CFCC28DD28C43
:07090D00D2A9D2AFD2B9223A
:03000000020800F3
:0C080000787FE4F6D8FD758132020847CD
:10080C0002088CE493A3F8E493A34003F68001F26E
:10081C0008DFF48029E493A3F85407240CC8C333ED
:10082C00C4540F4420C8834004F456800146F6DFBC
:10083C00E4800B01020408102040809008CAE47E7A
:10084C00019360BCA3FF543F30E509541FFEE493B1
:10085C00A360010ECF54C025E060A840B8E493A378
:10086C00FAE493A3F8E493A3C8C582C8CAC583CAA3
:10087C00F0A3C8C582C8CAC583CADFE9DEE780BE5B
:0108FC0000FB
:00000001FF
