:10025A0048656C6C6F0057656C636F6D6520746FD1
:08026A00204368696E61210068
:100097001202727B417D017F011202CF7BFF7A0240
:1000A700795A7D037F011201FC750C037B4D7A00A1
:1000B7007D097F0112023D750C037B9D7AFF7D0D43
:1000C7007F0112011E750C027BF57A007D017F020C
:1000D700120158750C087BF57A007D047F02120126
:1000E700917BDF7D0D7F021202CF7B437D0E7F0266
:1000F7001202CF7BE27D107F021202CF7BFF7A02D2
:1001070079607D107F011201FC7F181202C57FF410
:070117007E0112028680F256
:0602AA00C2A58F80D2A75F
:0802B0007F027EC7DEFEDFFCC9
:0102B8002223
:0C01C9007F0AEA24FFFDE434FFFC7E0006
:0801D5008E0F8F108C118D12AA
:1001DD007F017E00E4FBEBC39512E5116480F8749A
:0E01ED008098500AAC0FAD101200300B80E865
:0101FB0022E1
:0A02C500C2A61202AAC2A70202B0EC
:10021F00CFCDCFCECCCE1200427C007D0A12004251
:04022F00ED2430FF8B
:0A023300D2A61202AAC2A70202B06E
:100272007F381202C57F0C1202C57F061202C57FAB
:04028200010202C5AE
:10029A00EDBF0103148002243F4480FF1202C522ED
:0A02CF00AC0312029AAF04020233DE
:0601FC008B088A09890A44
:1002020012029AE4FDAB08AA09A90A8D827583003D
:0C021200120003FF60061202330D80E9A9
:01021E0022BD
:04023D008A0A8B0B93
:1002410012029AAA0CEAD39400400D1201C9AC0A19
:08025100AD0B12021F1A80ED33
:010259002282
:10011E0012029AC3EA64809480400B7F2B12023342
:10012E008A0D8B0E800E7F2D120233C3E49BF50ECB
:10013E00E49AF50DAA0CEAD39400400D1201C9AC55
:09014E000DAD0E12021F1A80ED26
:010157002285
:040158008A0A8B0B79
:10015C0012029AAA0CEAD3940040297F101201CB08
:10016C00AC0AAD0BCFCDCFCECCCE120042EF540F9C
:10017C00FEC3940AEE5004243080022437FF12028E
:04018C00331A80D1D1
:01019000224C
:040191008A0A8B0B40
:1001950012029AAA0CEAD394004028EA24FFFDE44F
:1001A50034FFFC7F027E001201D5AC0AAD0BCFCD2A
:1001B500CFCECCCE120042EF54012430FF120233D1
:0301C5001A80D2CB
:0101C8002214
:10028600EF4E600F7D027CEFDCFEDDFCEF1F70F0B1
:030296001E80EDDA
:010299002242
:030000000202B940
:0C02B900787FE4F6D8FD758112020097F2
:10000300BB010CE58229F582E5833AF583E02250B2
:1000130006E92582F8E622BBFE06E92582F8E222FC
:0D002300E58229F582E5833AF583E4932216
:10003000EF8DF0A4A8F0CF8CF0A428CE8DF0A42EE4
:02004000FE229E
:10004200BC000BBE0029EF8DF084FFADF022E4CCA2
:10005200F875F008EF2FFFEE33FEEC33FCEE9DEC6B
:10006200984005FCEE9DFE0FD5F0E9E4CEFD22EDB1
:10007200F8F5F0EE8420D21CFEADF075F008EF2FFB
:10008200FFED33FD4007985006D5F0F222C398FDEC
:050092000FD5F0EA2289
:00000001FF
