:10000E001203B412041B8F3CE53CB4010CE53F70A7
:10001E00047F0180027F008F3FE53CB40207E4F5C8
:10002E0040F53DF53EE53C64037033E540FD7C0054
:10003E00E4FF1203557F057E001203E1E53DFD7CD2
:10004E00007F011203557F057E001203E1E53EFDA0
:10005E007C007F021203557F057E001203E1E53C12
:10006E00B40415E4FF1202D58F407F011202D58F22
:10007E003D7F021202D58F3EE54075F00A84FD7F6A
:10008E0008120003E54075F00A84ADF07F071200F8
:10009E00037D107F06120003E53D75F00A84FD7F97
:1000AE0005120003E53D75F00A84ADF07F041200E1
:1000BE00037D107F03120003E53E75F00A84FD7F79
:1000CE0002120003E53E75F00A84ADF07F011200C6
:0400DE000302001108
:10032E00E53F6022053EE53EC394644019E4F53E88
:10033E00053DE53D943C400EE4F53D0540E5409419
:07034E003C4003E4F54022EE
:03000B000200E20E
:1000E200C0E0C0F0C083C082C0D075D000C000C0E4
:0D00F20001C002C003C004C005C006C00765
:1000FF00758CFC758A660537E53770020536C39433
:10010F0014E5369400400975360075370012026603
:10011F000539E53970020538C39402E5389400407B
:10012F0009753800753900120397053BE53B7002DE
:10013F00053AC3940AE53A94004009753A00753BB5
:04014F000012032E69
:10015300D007D006D005D004D003D002D001D00000
:0B016300D0D0D082D083D0F0D0E032AA
:1003E100EF4E600F7D027CEFDCFEDDFCEF1F70F055
:0303F1001E80ED7E
:0103F40022E6
:1003B4005389F0438901758A66758CFCC28DD28C91
:0703C400D2A9D2AFD2B92289
:05041B00E4AF43F543CE
:0104200022B9
:1003CB00E4FF20B1010F20B0027F0220B2027F03B5
:0503DB0020B3027F04C5
:0103E00022FA
:100266008541421203CB8F41E542B40107E5417057
:1002760003754301E542B40207E541700375430285
:10028600E542B40307E5417003754303E542B40450
:0802960007E541700375430404
:01029E00223D
:10029F000909001111111111111111202412003F20
:1002AF000006005B004F0066006D007D0007007FB9
:1002BF00006F007700FF003900BF00790071004028
:0502CF00000001080120
:0700030074092FF8A6052285
:1001FA00E4F580EE705BEF14B408005054900215D9
:10020A0075F003A4C58325F0C5837302022D02028B
:10021A003102023502023902023D02024502024D52
:10022A00020255C2A4800EC2A48012C2A48016C2C1
:10023A00A4801AD2A4C2A3C2A28016D2A4C2A3D2F4
:10024A00A2800ED2A4D2A3C2A28006D2A4D2A3D2E2
:0C025A00A2ED25E02412F808E6F5802251
:10039700AF087E0074092508F8E6FD7C001201FA13
:0C03A7000508E508C3940940037508012F
:0103B3002227
:09040B00D2A0D2A1C2A0C2A1221C
:07041400C2A0D2A1D2A02278
:02030500AD0742
:10030700E4FB74807E00A803088006CEA2E713CE24
:1003170013D8F8FFEDF582EF558224FF92A0D2A102
:06032700C2A10BBB08DCC3
:01032D0022AD
:10037900E4FFD2A0FED2A130A00D7480A8060880A7
:0D03890002C313D8FC4207C2A10EBE08E853
:010396002244
:0A040100EF24FF92A0D2A1C2A122B5
:0B03F500E4D2A0D2A1A2A033FFC2A15D
:0104000022D9
:100355008F448C458D4612040B7FA01203051203B2
:10036500F5AF441203051203F5AF46120305120358
:04037500F502041475
:0202D5008F4454
:1002D70012040B7FA01203051203F5AF44120305A6
:1002E7001203F512040B7FA11203051203F5120383
:0D02F700798F457F01120401120414AF45F8
:0103040022D6
:0300000002016E8C
:0C016E00787FE4F6D8FD7581460201B5EB
:10017A0002000EE493A3F8E493A34003F68001F28D
:10018A0008DFF48029E493A3F85407240CC8C33386
:10019A00C4540F4420C8834004F456800146F6DF55
:1001AA00E4800B010204081020408090029FE47E44
:1001BA00019360BCA3FF543F30E509541FFEE4934A
:1001CA00A360010ECF54C025E060A840B8E493A311
:1001DA00FAE493A3F8E493A3C8C582C8CAC583CA3C
:1001EA00F0A3C8C582C8CAC583CADFE9DEE780BEF4
:0102D4000029
:00000001FF
