:10036200414444522020434D4420204E554D0030FC
:0E03720030202020203030202020303030007D
:1001EE001203E57BFF7A0379627D017F0112033FE3
:1001FE007BFF7A0379717D017F0212033F1204782F
:10020E00120426EF7006120418EF60F412047E8FAB
:10021E002C1204818F2BE52CFB7A007519027D01BF
:10022E007F0212029BE52BFB7A007519027D077F78
:10023E000212029BE52BB41502152DE52BB4090213
:10024E00052DE52DFB7A007519037D0C7F02120337
:03025E009E80ADD2
:1003D100EF4E600F7D027CEFDCFEDDFCEF1F70F065
:0303E1001E80ED8E
:0103E40022F6
:06040900C2A58F80D2A7FE
:08040F007F027EEFDEFEDFFC40
:0104170022C2
:0A045500C2A6120409C2A702040F98
:10038000CFCDCFCECCCE1201997C007D0A1201993F
:04039000ED2430FF29
:0A039400D2A6120409C2A702040F4A
:1003BB00AE07BE0104ED148006BE0209ED243F44D6
:0603CB0080FF1204552220
:1003E5007F381204557F0C1204557F061204557F81
:0403F50001020455A8
:0A045F00AC031203BBAF04020394C8
:06033F008B158A168917D8
:100345001203BBE4FDAB15AA16A9178D82758300B0
:0C03550012015AFF60061203940D80E9AB
:010361002279
:0C030C007F0AEA24FFFDE434FFFC7E00C1
:080318008E1A8F1B8C1C8D1D39
:100320007F017E00E4FBEBC3951DE51C6480F8743F
:0E0330008098500AAC1AAD1B1201870B80E8B2
:01033E00229C
:04039E008A178B1817
:1003A2001203BBAA19EAD39400400D12030CAC1736
:0803B200AD181203801A80ED62
:0103BA002220
:100261001203BBC3EA64809480400B7F2B1203947A
:100271008A238B24800E7F2D120394C3E49BF524E3
:10028100E49AF523AA22EAD39400400D12030CACA0
:0902910023AD241203801A80ED54
:01029A002241
:04029B008A178B181B
:10029F001203BBAA19EAD3940040297F1012030E50
:1002AF00AC17AD18CFCDCFCECCCE120199EF540FE6
:1002BF00FEC3940AEE5004243080022437FF120349
:0402CF00941A80D12C
:0102D3002208
:0402D4008A278B28C2
:1002D8001203BBAA29EAD394004028EA24FFFDE4CC
:1002E80034FFFC7F027E00120318AC27AD28CFCD67
:1002F800CFCECCCE120199EF54012430FF120394D3
:030308001A80D286
:01030B0022CF
:0B043F00D288C289D2A8D2AFD2B82266
:1003F9005389F0438901E4F58AF58CC28DC28C22B8
:0B044A00AD07AC068C8CAF058F8A223A
:09046900AF8CEFFEAD8AEDFF221D
:06047200EF24FF928C2232
:060478001203F902043F2B
:0D042600E5106006E4F5107F01227F002242
:0E041800E50EB40106E4F50E7F01227F0022FE
:03047E00AF0C229E
:03048100AF0B229C
:03000300020006F2
:10000600C0E0C0F0C083C082C0D075D000C000C0C0
:1000160001C002C003C004C005C006C007E50870E1
:100026000CFFFE12044A7F011204728051E5086437
:100036000170511204698E098F0AE4FFFE12044A08
:10004600D3E50A94D8E50994274010E50A94A0E57B
:10005600099441500675080202013FD3E50A948CC3
:10006600E50994264018E50A9474E509942A500E89
:10007600750E01750800E4FF12047202013F75084F
:100086000102013FE5086402600302013F120469B0
:100096008E098F0AE4FFFE12044AD3E50A946CE542
:1000A600099402402CE50A9454E50994065022E589
:1000B6000F131313541F2411F8C000E6FFE50F5465
:1000C60007FE7401A806088002C333D8FCF45F80DB
:1000D60034D3E50A94D6E50994064030E50A94BE81
:1000E600E509940A5026E50F131313541F2411F83B
:1000F600C000E6FFE50F5407FE7401A8060880025B
:10010600C333D8FC4FD000F6050F8006750F007577
:100116000801E50FC394204020750F00E512F4B5E1
:10012600110FE514F4B5130985110C85130B751021
:1001360001E4FF120472750800D007D006D005D07E
:1001460004D003D002D001D000D0D0D082D083D04A
:04015600F0D0E032D3
:03000000020433C4
:0C043300787FE4F6D8FD75812D0201EE03
:10015A00BB010CE58229F582E5833AF583E022505A
:10016A0006E92582F8E622BBFE06E92582F8E222A4
:0D017A00E58229F582E5833AF583E49322BE
:10018700EF8DF0A4A8F0CF8CF0A428CE8DF0A42E8C
:02019700FE2246
:10019900BC000BBE0029EF8DF084FFADF022E4CC4A
:1001A900F875F008EF2FFFEE33FEEC33FCEE9DEC13
:1001B900984005FCEE9DFE0FD5F0E9E4CEFD22ED59
:1001C900F8F5F0EE8420D21CFEADF075F008EF2FA3
:1001D900FFED33FD4007985006D5F0F222C398FD94
:0501E9000FD5F0EA2231
:00000001FF
