:1002950012064E1206421205FBEF60591206578FE1
:1002A50060EFFB7A007547037D017F02120570E55B
:1002B50060B41603E4F561E560B40C03756101E50E
:1002C50060B41803756102E560B45E03756103E50A
:1002D500617004FF120651E561B401057F3C120609
:1002E50051E561B402057F4B120651E561B4030582
:1002F5007F64120651AD617F0112063B12055380E2
:010305009562
:10037200E4F56420B1137F14FE12000630B1FD7F54
:10038200147E0012000675640120B0147F147E00F2
:1003920012000630B0FD7F147E0012000675640262
:1003A20020B2147F147E0012000630B2FD7F147E4C
:1003B2000012000675640320B3147F147E0012003D
:1003C2000630B3FD7F147E00120006756404AF642C
:0103D2002208
:10000600EF4E600F7D027CEFDCFEDDFCEF1F70F033
:030016001E80ED5C
:0100190022C4
:10047E000909001111111111111111202412003F3F
:10048E000006005B004F0066006D007D0007007FD8
:10049E00006F007700FF003900BF00790071004047
:0504AE0000000108013F
:07063B0074092FF8A6052247
:10030600E4F580EE705BEF14B408005054900321BE
:1003160075F003A4C58325F0C58373020339020370
:100326003D020341020345020349020351020359F8
:10033600020361C2A4800EC2A48012C2A48016C2A7
:10034600A4801AD2A4C2A3C2A28016D2A4C2A3D2E7
:10035600A2800ED2A4D2A3C2A28006D2A4D2A3D2D5
:0C036600A2ED25E02412F808E6F5802244
:10055300AF087E0074092508F8E6FD7C0012030647
:0C0563000508E508C39409400375080171
:01056F002269
:10058D0053890F438910758B9C758DFFC28FD28E49
:07059D00D2ABD2AFC2BB22BA
:03064E0002058D15
:030651008F622293
:03001B000204E7F5
:1004E700C0E0C0F0C0D0758B9C758DFF0563E563D8
:1004F70075F0648485F063E563C395625004D29018
:0B0507008002C290D0D0D0F0D0E032D3
:0B060800D288C289D2A8D2AFD2B8229B
:060642001205CE020608BD
:0D05FB00E53E6006E4F53E7F01227F002210
:0E05ED00E53CB40106E4F53C7F01227F0022CC
:03065400AF3A2298
:03065700AF392296
:0300030002001EDA
:10001E00C0E0C0F0C083C082C0D075D000C000C0A8
:10002E0001C002C003C004C005C006C007E536709B
:10003E000CFFFE1206137F011206488051E536644E
:10004E000170511206328E378F38E4FFFE120613FE
:10005E00D3E53894D8E53794274010E53894A0E5D9
:10006E00379441500675360202015AD3E538948C06
:10007E00E53794264018E5389474E537942A500EE7
:10008E00753C01753600E4FF12064802015A7536BA
:10009E000102015AE5366402600302015A12063269
:1000AE008E378F38E4FFFE120613D3E538946CE5D5
:1000BE00379402402CE5389454E53794065022E5E7
:1000CE003D131313541F243FF8C000E6FFE53D54C3
:1000DE0007FE7401A806088002C333D8FCF45F80C3
:1000EE0034D3E53894D6E53794064030E53894BEDF
:1000FE00E537940A5026E53D131313541F243FF899
:10010E00C000E6FFE53D5407FE7401A80608800214
:10011E00C333D8FC4FD000F6053D8006753D007503
:10012E003601E53DC39420402375A000753D00E5E2
:10013E0040F4B53F0FE542F4B54109853F3A85419C
:10014E0039753E01E4FF120648753600D007D00619
:10015E00D005D004D003D002D001D000D0D0D082B0
:07016E00D083D0F0D0E03295
:1005CE005389F0438901E4F58AF58CC28DC28C22E1
:0B061300AD07AC068C8CAF058F8A226F
:09063200AF8CEFFEAD8AEDFF2252
:06064800EF24FF928C225A
:0605DE00C2A58F80D2A728
:0805E4007F027EEFDEFEDFFC6A
:0105EC0022EC
:0A061E00C2A61205DEC2A70205E421
:10053500CFCDCFCECCCE1201B47C007D0A1201B452
:04054500ED2430FF72
:0A054900D2A61205DEC2A70205E4E7
:1005A400AE07BE0104ED148006BE0209ED243F44EB
:0605B40080FF12061E226A
:1005BA007F3812061E7F0C12061E7F0612061E7F49
:0405CA000102061E06
:0A062800AC031205A4AF040205495B
:060512008B5D8A5E895F2B
:100518001205A4E4FDAB5DAA5EA95F8D8275830018
:0C052800120175FF60061205490D80E904
:0105340022A4
:0C04B4007F0AEA24FFFDE434FFFC7E0018
:0804C0008E488F498C4A8D4BD8
:1004C8007F017E00E4FBEBC3954BE54A6480F8743A
:0E04D8008098500AAC48AD491201A20B80E892
:0104E60022F3
:040570008A458B46E7
:100574001205A4AA47EAD39400400D1204B4AC4572
:08058400AD461205351A80EDA9
:01058C00224C
:1003D3001205A4C3EA64809480400B7F2B12054965
:1003E3008A518B52800E7F2D120549C3E49BF5522F
:1003F300E49AF551AA50EAD39400400D1204B4AC28
:0904030051AD521205351A80EDCD
:01040C0022CD
:04040D008A558B562B
:100411001205A4AA57EAD3940040297F101204B60A
:10042100AC55AD56CFCDCFCECCCE1201B4EF540FDB
:10043100FEC3940AEE5004243080022437FF1205D3
:04044100491A80D103
:010445002294
:040446008A5A8B5BE8
:10044A001205A4AA5CEAD394004028EA24FFFDE43A
:10045A0034FFFC7F027E001204C0AC5AAD5BCFCDE4
:10046A00CFCECCCE1201B4EF54012430FF1205498D
:03047A001A80D213
:01047D00225C
:03000000020209F0
:0C020900787FE4F6D8FD75816402025095
:10017500BB010CE58229F582E5833AF583E022503F
:1001850006E92582F8E622BBFE06E92582F8E22289
:0D019500E58229F582E5833AF583E49322A3
:1001A200EF8DF0A4A8F0CF8CF0A428CE8DF0A42E71
:0201B200FE222B
:1001B400BC000BBE0029EF8DF084FFADF022E4CC2F
:1001C400F875F008EF2FFFEE33FEEC33FCEE9DECF8
:1001D400984005FCEE9DFE0FD5F0E9E4CEFD22ED3E
:1001E400F8F5F0EE8420D21CFEADF075F008EF2F88
:1001F400FFED33FD4007985006D5F0F222C398FD79
:050204000FD5F0EA2215
:10021500020295E493A3F8E493A34003F68001F268
:1002250008DFF48029E493A3F85407240CC8C333EA
:10023500C4540F4420C8834004F456800146F6DFB9
:10024500E4800B010204081020408090047EE47EC7
:10025500019360BCA3FF543F30E509541FFEE493AE
:10026500A360010ECF54C025E060A840B8E493A375
:10027500FAE493A3F8E493A3C8C582C8CAC583CAA0
:10028500F0A3C8C582C8CAC583CADFE9DEE780BE58
:0104B3000048
:00000001FF
