:10098200202208003F0006005B004F0066006D0059
:100992007D0007007F006F007700FF003900BF0075
:0509A200790071000066
:0409A8007F647E00EA
:1009AC00EF1FAC0670011E4C600A7D027CEFDCFE72
:0409BC00DDFC80ECF2
:0109C0002214
:10080000E4F52A7590F7E59064F7602E1209A8E5E3
:100810009064F76025AF90EF2449601124E06012E6
:1008200024F0601324707012752A01800D752A055A
:100830008008752A098003752A0DE590B4F7FB75C9
:1008400090FBE59064FB602E1209A8E59064FB60C4
:1008500025AF90EF2445601124E0601224F060136E
:1008600024707012752A02800D752A068008752A78
:100870000A8003752A0EE590B4FBFB7590FDE590A8
:1008800064FD602E1209A8E59064FD6025AF90EF2D
:100890002443601124E0601224F06013247070126D
:1008A000752A03800D752A078008752A0B80037549
:1008B0002A0FE590B4FDFB7590FEE59064FE602E76
:1008C0001209A8E59064FE6025AF90EF2442601104
:1008D00024E0601224F0601324707012752A0480E2
:1008E0000D752A088008752A0C8003752A10E5907A
:0508F000B4FEFBAF2A7D
:0108F50022E0
:1009C100E4FF120800EF60FA25E02406F808E6F5D6
:0309D1008080EF34
:030000000208F6FD
:0C08F600787FE4F6D8FD75812A02093DE8
:100902000209C1E493A3F8E493A34003F68001F241
:1009120008DFF48029E493A3F85407240CC8C333F6
:10092200C4540F4420C8834004F456800146F6DFC5
:10093200E4800B0102040810204080900982E47ECA
:10094200019360BCA3FF543F30E509541FFEE493BA
:10095200A360010ECF54C025E060A840B8E493A381
:10096200FAE493A3F8E493A3C8C582C8CAC583CAAC
:10097200F0A3C8C582C8CAC583CADFE9DEE780BE64
:0109A700004F
:00000001FF
