:1008F500202208003F0006005B004F0066006D00E7
:100905007D0007007F006F007700FF003900BF0002
:050915007900710000F3
:10088C00EE705BEF14B4080050549008A475F0039C
:10089C00A4C58325F0C583730208BC0208C00208F6
:1008AC00C40208C80208CC0208D40208DC0208E41E
:1008BC00C2A4800EC2A48012C2A48016C2A4801A44
:1008CC00D2A4C2A3C2A28016D2A4C2A3D2A2800E6A
:1008DC00D2A4D2A3C2A28006D2A4D2A3D2A2ED25C6
:0908EC00E02408F808E6F580227A
:0D091B007D0C7C007F037E0012088C80FEA6
:03000000020800F3
:0C080000787FE4F6D8FD758129020847D6
:10080C0002091BE493A3F8E493A34003F68001F2DE
:10081C0008DFF48029E493A3F85407240CC8C333ED
:10082C00C4540F4420C8834004F456800146F6DFBC
:10083C00E4800B01020408102040809008F5E47E4F
:10084C00019360BCA3FF543F30E509541FFEE493B1
:10085C00A360010ECF54C025E060A840B8E493A378
:10086C00FAE493A3F8E493A3C8C582C8CAC583CAA3
:10087C00F0A3C8C582C8CAC583CADFE9DEE780BE5B
:01091A0000DC
:00000001FF
