:100C3E0050617373776F72643A004F4B20004552C8
:020C4E00520052
:10098900E4F508F509F50AF50BF50CF50D120C2A35
:100999007BFF7A0C793E7D017F01120BA2120800C0
:1009A9007508008F09E509450860F2C3E509940A4D
:1009B900E5089400503EC3E50D9404E50C940050FD
:1009C90033AE0AAF0B7C007D0A120A5D8E0A8F0BCB
:1009D900E509250BF50BE508350AF50A050DE50DC1
:1009E9007002050C751204AB0BAA0A7D017F021275
:1009F9000BE380A9E509640A450870A1E50BB42257
:100A09000DE50AB405087BFF7A0C794880067BFF5F
:100A19007A0C794C7D0C7F01120BA2E4F50CF50DD3
:070A2900F50AF50B0209A616
:100C1600EF4E600F7D027CEFDCFEDDFCEF1F70F017
:030C26001E80ED40
:010C290022A8
:060C5000C2A58F80D2A7AF
:080C56007F027EEFDEFEDFFCF1
:010C5E002273
:0A0C6B00C2A6120C50C2A7020C56DC
:100BC500CFCDCFCECCCE120A6F7C007D0A120A6F34
:040BD500ED2430FFDC
:0A0BD900D2A6120C50C2A7020C565F
:100C0000AE07BE0104ED148006BE0209ED243F4488
:060C100080FF120C6B22B4
:100C2A007F38120C6B7F0C120C6B7F06120C6B7FD9
:040C3A0001020C6B3C
:0A0C7500AC03120C00AF04020BD90F
:060BA2008B0E8A0F891082
:100BA800120C00E4FDAB0EAA0FA9108D827583000C
:0C0BB800120A30FF6006120BD90D80E914
:010BC400220E
:0C0B6F007F0AEA24FFFDE434FFFC7E0056
:080B7B008E138F148C158D16EA
:100B83007F017E00E4FBEBC39516E5156480F874E2
:0E0B93008098500AAC13AD14120A5D0B80E876
:010BA1002231
:040BE3008A108B11D8
:100BE700120C00AA12EAD39400400D120B6FAC103E
:080BF700AD11120BC51A80EDCF
:010BFF0022D3
:100AC400120C00C3EA64809480400B7F2B120BD974
:100AD4008A1C8B1D800E7F2D120BD9C3E49BF51D40
:100AE400E49AF51CAA1BEAD39400400D120B6FACD8
:090AF4001CAD1D120BC51A80EDAA
:010AFD0022D6
:040AFE008A208B219E
:100B0200120C00AA22EAD3940040297F10120B7122
:100B1200AC20AD21CFCDCFCECCCE120A6FEF540F89
:100B2200FEC3940AEE5004243080022437FF120BD5
:040B3200D91A80D17B
:010B3600229C
:040B37008A258B265A
:100B3B00120C00AA27EAD394004028EA24FFFDE414
:100B4B0034FFFC7F027E00120B7BAC25AD26CFCD94
:100B5B00CFCECCCE120A6FEF54012430FF120BD93B
:030B6B001A80D21B
:010B6E002264
:10080000E4F50E7590FFC2932097137F14FE120C2F
:10081000163097FD7F147E00120C16750E0120967F
:10082000147F147E00120C163096FD7F147E001289
:100830000C16750E052095147F147E00120C1630D0
:1008400095FD7F147E00120C16750E092094147FFE
:10085000147E00120C163094FD7F147E00120C16CC
:10086000750E0D7590FFC2922097147F147E0012B2
:100870000C163097FD7F147E00120C16750E0220A8
:1008800096147F147E00120C163096FD7F147E00A5
:10089000120C16750E062095147F147E00120C168D
:1008A0003095FD7F147E00120C16750E0A209414EC
:1008B0007F147E00120C163094FD7F147E00120C03
:1008C00016750E0E7590FFC2912097147F147E004E
:1008D000120C163097FD7F147E00120C16750E0355
:1008E0002096147F147E00120C163096FD7F147E25
:1008F00000120C16750E072095147F147E00120C42
:10090000163095FD7F147E00120C16750E0B209488
:10091000147F147E00120C163094FD7F147E00129A
:100920000C16750E0F7590FFC2902097147F147EE1
:1009300000120C163097FD7F147E00120C16750EF7
:10094000042096147F147E00120C163096FD7F143E
:100950007E00120C16750E082095147F147E00126E
:100960000C163095FD7F147E00120C16750E0C20AF
:1009700094147F147E00120C163094FD7F147E00B8
:08098000120C16750E10AF0EEB
:01098800224C
:03000000020C5F90
:0C0C5F00787FE4F6D8FD75812702098932
:100A3000BB010CE58229F582E5833AF583E022507B
:100A400006E92582F8E622BBFE06E92582F8E222C5
:0D0A5000E58229F582E5833AF583E49322DF
:100A5D00EF8DF0A4A8F0CF8CF0A428CE8DF0A42EAD
:020A6D00FE2267
:100A6F00BC000BBE0029EF8DF084FFADF022E4CC6B
:100A7F00F875F008EF2FFFEE33FEEC33FCEE9DEC34
:100A8F00984005FCEE9DFE0FD5F0E9E4CEFD22ED7A
:100A9F00F8F5F0EE8420D21CFEADF075F008EF2FC4
:100AAF00FFED33FD4007985006D5F0F222C398FDB5
:050ABF000FD5F0EA2252
:00000001FF
